:1000000003308A00272B0000F437EF31EC37F3324E
:10001000000053366F3A731D20003E308400831376
:100020000008031920280630F800F701F70B1628FE
:10003000F80B15287B30F700F70B1C28800B1328D2
:100040000800831609108312091083168910831281
:1000500089108316880183123A08880083160911D3
:1000600083120911332834280000831609118312E2
:1000700009150230BE000D208316091183120911E3
:1000800008003830BA0021200C30BA002120063098
:10009000BA0021200130BA0021200530BE000D2019
:1000A0008A110A126A2B831685128312851283160F
:1000B0000513831205138316880183123A088800FA
:1000C000831685138312851365286628000083161E
:1000D0008513831285170230BE000D208316851309
:1000E0008312851308003830BA0053200C30BA0050
:1000F00053200630BA0053200130BA005320053097
:10010000BE000D208A110A126B2B3F080739F70039
:100110003F0CF800F80CF80C1F30F8057808410780
:100120008400831342188317F801F80AF70A992804
:10013000F80DF70B9828C0080319A1287808800447
:10014000A428F8097808800508003F080739F70057
:100150003F0CF800F80CF80C1F30F8057808400741
:1001600084008313411883170008F800F70AB928A0
:10017000F80CF70BB82808003A08BF00C001C2010C
:10018000C10185203A08BF00C001C2018030C10012
:1001900085200330F700F70BCB283A08BF00013069
:1001A000C000C201C10185203A08BF00C001C201E0
:1001B0008030C10085201030F700F70BDD280000EB
:1001C0003A08BF00C001C201C10185203A08BF0042
:1001D000C001C2018030C10085203B08BF00013052
:1001E000C000C2018030C10085203B08BF00C101B2
:1001F000C001A520781CED288F018E013B08BF00AF
:100200000130C000C2018030C10085203B08BF0022
:10021000C101C001A5207818FE280F08FA000E08B9
:10022000F7000F087A02031D0D297708BE00C001F0
:100230003E08BF008E30F7004008F8003F08F90084
:10024000FA01F808031D2E297908F800F901083091
:10025000F702F808031D2E29F70136290310F81BB1
:100260003529F90DF80DF7032E29F8137A08C20085
:100270007908C1007808C0007708BF00CD30C600FB
:10028000CC30C5004C30C4007F30C3003F08031998
:10029000B629C70043080319B629C7070318572909
:1002A0007F30C702031CB6290319B6295B298130A8
:1002B000C7070318B6294708F700F801F901FA0142
:1002C0004008CB00CB174108CA004208C9001830CB
:1002D000C700C801491C84294608FA07031C76296F
:1002E000F90A031D7629F80A0319C8174508F90702
:1002F000031C7D29F80A0319C8174408C100C11757
:100300004108F8070318C817C80DF80CF90CFA0CC7
:10031000CB0CCA0CC90C0310C70B69290130F707B5
:100320000318B629F81B9B29CB0DFA0DF90DF80D12
:10033000F7030319B629CB1FAC29FA0A031DAC2910
:10034000F90A031DAC29F80A031DAC29F80CF90CB5
:10035000FA0CF70A0319B6294008C8004408C80671
:10036000C81FB429F817BA29F813BA29F701F801F8
:10037000F901FA017708BF007808C0007908C100C8
:100380007A08C2004208C6004108C5004008C400FF
:100390003F08C300CA01C9016830C8008430C700E3
:1003A00043080319952ACF0047080319952ACF025D
:1003B000031CDF297F30CF070318952AE5298130F8
:1003C000CF02031C952A0319952A4F08F700F8015C
:1003D000F901FA01CE014408CD00CD174508CC0043
:1003E0004608CB001930CF004A08CB020318082A70
:1003F0000130CC020318082ACD020318082ACE02C5
:100400000318082ACE0ACD0ACC0A4A08CB073A2A92
:100410004908CC020318232A0130CD020318232AED
:10042000CE020318232ACE0ACD0A4908CC074A086F
:10043000CB07031C3A2ACC0A031D3A2ACD0A031D16
:100440003A2ACE0A3A2A48088038CD020318392AB7
:100450000130CE020318392ACE0A48088038CD0769
:100460004908CC07031C172ACD0A031D172ACE0AF8
:10047000172A7A14CF0B3D2A482A0310CB0DCC0D36
:10048000CD0DCE0D0310FA0DF90DF80DD00DF42998
:10049000501C502A0310F80CF90CFA0CD00C532AFB
:1004A000F7030319952AD01B7C2A0310CB0DCC0D22
:1004B000CD0DCE0D4A08CB020318682A0130CC02BC
:1004C0000318682ACD020318682ACE02031C8B2A5F
:1004D0004908CC020318732A0130CD020318732A8D
:1004E000CE02031C8B2A48088038CD0203187C2AD0
:1004F0000130CE02031C8B2AFA0A031D8B2AF90A4B
:10050000031D8B2AF80A031D8B2AF70A0319952A63
:10051000F80CF90CFA0C4408CF004808CF06CF1F9E
:10052000932AF817992AF813992AF701F801F90183
:10053000FA017A08C2007908C1007808C00077087B
:10054000BF008E30F7003F08F7024008F90041086D
:10055000F800F917F7080319B82A0310F908031D62
:10056000B42AF8080319B82AF90CF80CF70BAD2ACD
:10057000C01FBF2AF809F909F80A0319F90A79080E
:100580000800831609108312091483168910831238
:1005900089108316880183123D088800831609118B
:1005A00083120911D32AD42A000083160911831259
:1005B00009150230BE000D2083160911831209119E
:1005C0000800831603178C170C1400000000831218
:1005D0000C087F390319252B0313BA0003170D08E4
:1005E0000313BB0003170F080313BC003A08BD0038
:1005F000C1223B0803178D0003133C0803178F002B
:1006000083168C170C140000000083120C0D0E0DC5
:100610007F390319252B0313BA0003170D080313A1
:10062000BB0003170F080313BC003A08BD00C1222A
:100630003B0803178D0003133C0803178F008D0A36
:1006400003198F0A0313E12A031703130800840117
:1006500083131F3083058316031787150830031390
:10066000990002309A00A6309800903083129800CA
:10067000A101A001A301A201A501A401A701A60156
:10068000A801A901AA01AB01AE01AF0183160317AE
:100690000908C039890003131F129F120030031785
:1006A00088008312870188018901FF300313B0009D
:1006B00000308316880086000910891009118911FD
:1006C0008500F03087008312B00083160510831276
:1006D000051041287328153090008F018E013830A5
:1006E000BA003C30BB00BC207908B2007808B100E9
:1006F0003930BA003D30BB00BC207908B40078081E
:10070000B3003A30BA003E30BB00BC207908B600D6
:100710007808B5003B30BA003F30BB00BC207908F8
:10072000B8007808B700B208031D9C2B3108133CB1
:10073000031C9C2B0130A800B408031DA52B330813
:10074000133C031CA52B0130A900B608031DAC2BDC
:100750003508143C0318AF2B0130AA00C02BB60893
:10076000031DC02B3508093C031CC02BC530BA0043
:100770002120043003178D0000308F000313E12285
:10078000B808031DC92B3708133C031CC92B0130C3
:10079000AB00A8080319D02BA00A0319A10AD22B79
:1007A000A101A001A9080319D92BA20A0319A30AC0
:1007B000DB2BA301A201AA080319E22BA40A031947
:1007C000A50AE42BA501A401AB080319EB2BA60A8B
:1007D0000319A70AED2BA701A6012808043CF8007D
:1007E00029087802F8002A087802F8002B08780215
:1007F000B9008030BA002120093003178D00003085
:100800008F000313E12230303907BA00BD00C12246
:10081000F030BA00FA30BE000D20BA0B0A2C6F2B54
:02082000630073
:04400E00F22CFF3F52
:00000001FF
;PIC16F887
;CRC=B3D0  CREATED="22-Apr-25 19:14"
