:1000000003308A005B2B0000613B611073366F3A4E
:100010000000F4376F10E63072002E308400831336
:100020000008031920280630F800F701F70B1628FE
:10003000F80B15287B30F700F70B1C28800B1328D2
:100040000800831689108312891083160910831201
:1000500009108316880183122A0888008316091163
:100060008312091183160911831209150130AE009C
:100070000D2008003830AA0021200C30AA002120D1
:100080000630AA0021200130AA0021208A110A127C
:10009000912B831605138312051383168512831281
:1000A00085128316880183122A0888008316851317
:1000B0008312851383168513831285170800383041
:1000C000AA0049200C30AA0049200630AA00492085
:1000D0000130AA0049208A110A12922B2D080739F3
:1000E000F7002D0CF800F80CF80C1F30F805780814
:1000F0002F078400831330188317F801F80AF70AD2
:100100008228F80DF70B8128AE0803198A28780891
:1001100080048D28F8097808800508002C08073924
:10012000F7002C0CF800F80CF80C1F30F8057808D4
:100130002D07840083132E1883170008F800F70A90
:10014000A228F80CF70BA12808002A08AC002C08FC
:10015000AD000130AE00B001AF016E202C08AD0043
:10016000AE01B0018030AF006E201030F700F70B09
:10017000B72800002C08AD00AE01B001AF016E2021
:100180002C08AD00AE01B0018030AF006E202B080E
:10019000AD000130AE00B0018030AF006E202B0802
:1001A000AC00AE01AD018E20781CC7280C108F0169
:1001B0008E012B08AD000130AE00B0018030AF00E1
:1001C0006E202B08AC00AE01AD018E207818D92826
:1001D0000F08FA000E08F7000F087A02031DE8283E
:1001E0007708A300AD012308AC008E30F7002D087E
:1001F000F8002C08F900FA01F808031D092979080C
:10020000F800F9010830F702F808031D0929F70181
:1002100011290310F81B1029F90DF80DF70309290E
:10022000F8137A08AF007908AE007808AD007708B7
:10023000AC00CD30B300CC30B2004C30B1007F30D8
:10024000B0002C0803199129B40030080319912932
:10025000B407031832297F30B402031C9129031913
:10026000912936298130B407031891293408F70001
:10027000F801F901FA012D08B800B8172E08B700E7
:100280002F08B6001830B400B501361C5F293308BA
:10029000FA07031C5129F90A031D5129F80A031909
:1002A000B5173208F907031C5829F80A0319B517BE
:1002B0003108AE00AE172E08F8070318B517B50DB4
:1002C000F80CF90CFA0CB80CB70CB60C0310B40B04
:1002D00044290130F70703189129F81B7629B80D36
:1002E000FA0DF90DF80DF70303199129B81F8729A5
:1002F000FA0A031D8729F90A031D8729F80A031D35
:100300008729F80CF90CFA0CF70A031991292D0822
:10031000B5003108B506B51F8F29F8179529F813D0
:100320009529F701F801F901FA017708AC0078087E
:10033000AD007908AE007A08AF002F08B3002E0890
:10034000B2002D08B1002C08B000B701B60168302A
:10035000B5008430B40030080319702ABC0034089A
:100360000319702ABC02031CBA297F30BC0703188A
:10037000702AC0298130BC02031C702A0319702A1C
:100380003C08F700F801F901FA01BB013108BA0095
:10039000BA173208B9003308B8001930BC00370862
:1003A000B8020318E3290130B9020318E329BA029D
:1003B0000318E329BB020318E329BB0ABA0AB90AE6
:1003C0003708B807152A3608B9020318FE29013084
:1003D000BA020318FE29BB020318FE29BB0ABA0A97
:1003E0003608B9073708B807031C152AB90A031DD0
:1003F000152ABA0A031D152ABB0A152A35088038A2
:10040000BA020318142A0130BB020318142ABB0ACB
:1004100035088038BA073608B907031CF229BA0A2A
:10042000031DF229BB0AF2297A14BC0B182A232ACD
:100430000310B80DB90DBA0DBB0D0310FA0DF90D6F
:10044000F80DBD0DCF293D1C2B2A0310F80CF90C1B
:10045000FA0CBD0C2E2AF7030319702ABD1B572A6C
:100460000310B80DB90DBA0DBB0D3708B80203184B
:10047000432A0130B9020318432ABA020318432A57
:10048000BB02031C662A3608B90203184E2A013043
:10049000BA0203184E2ABB02031C662A35088038AC
:1004A000BA020318572A0130BB02031C662AFA0A53
:1004B000031D662AF90A031D662AF80A031D662A27
:1004C000F70A0319702AF80CF90CFA0C3108BC0071
:1004D0003508BC06BC1F6E2AF817742AF813742A54
:1004E000F701F801F901FA017A08AF007908AE00C6
:1004F0007808AD007708AC008E30F7002C08F702C2
:100500002D08F9002E08F800F917F7080319932AA7
:100510000310F908031D8F2AF8080319932AF90C10
:10052000F80CF70B882AAD1F9A2AF809F909F80A7E
:100530000319F90A790808008316891083128910B3
:1005400083160910831209148316880183122D085B
:100550008800831609118312091183160911831269
:1005600009150130AE000D200800831603178C1703
:100570000C140000000083120C087F390319F92ABB
:100580000313AA0003170D080313AB0003170F088A
:100590000313AC002A08AD009C222B0803178D0022
:1005A00003132C0803178F0083168C170C140000FC
:1005B000000083120C0D0E0D7F390319F92A031365
:1005C000AA0003170D080313AB0003170F0803134A
:1005D000AC002A08AD009C222B0803178D000313E2
:1005E0002C0803178F008D0A03198F0A0313B52AED
:1005F000031703138A110A12C52B831605138312DE
:1006000005138316851283128516831688018312BB
:100610002D0888008316851383128513831685138E
:10062000831285170800831603178C170C1400001B
:10063000000083120C087F390319572B0313AA00FB
:1006400003170D080313AB0003170F080313AC00C7
:100650002A08AD00FD222B0803178D0003132C0878
:1006600003178F0083168C170C14000000008312F0
:100670000C0D0E0D7F390319572B0313AA00031716
:100680000D080313AB0003170F080313AC002A086F
:10069000AD00FD222B0803178D0003132C08031750
:1006A0008F008D0A03198F0A0313132B03170313EB
:1006B0008A110A12DB2B840183131F3083058316F2
:1006C0000317871508300313990002309A00A630EB
:1006D00098009030831298000130A000A301A4017B
:1006E000A501A601A701831603170908C0398900CF
:1006F00003131F129F120030031788008312870113
:1007000088018901FF300313A80000308316880098
:100710000910891009118911F03087008312A8008F
:100720003A285F28153090003830AA003C30AB00E2
:10073000A5207808A4003930AA003D30AB00A520E0
:100740007808A5003A30AA003E30AB00A520780812
:10075000A6003B30AA003F30AB00A5207808A700D8
:100760000430A900A408031DA903A508031DA903BB
:10077000A708031DA9038030AA0021200430031715
:100780008D0000308F000313B52A30302907AA00EE
:10079000AD009C226430AE000D202408323C031CC6
:1007A000D12B8030AA004920093003178D0000307A
:1007B0008F000313132B6430AE000D20942B6300C5
:04400E00F22CFF3F52
:00000001FF
;PIC16F887
;CRC=7ED1  CREATED="22-Apr-25 18:20"
